:100000000C9477000C9496000C9496000C94960037
:100010000C9496000C9496000C9496000C94960008
:100020000C9496000C9496000C9496000C949600F8
:100030000C9496000C9496000C9496000C949600E8
:100040000C9496000C9498000C9496000C949600D6
:100050000C9496000C9496000C9496000C949600C8
:100060000C9496000C9496000C9496000C949600B8
:100070000C9496000C9496000C9496000C949600A8
:100080000C94640C0C9496000C9496000C949600BE
:100090000C9496000C9496000664EC1B3C04BC1671
:1000A0003E3BE5B93CC93C37C29E5A3D66049808C0
:1000B0003EEA69AAAA3E000000803F99989796956B
:1000C0009493929190807060504030201000010213
:1000D000030405060708091929394959697989046A
:1000E000031221304051627374655647372611243C
:1000F0001FBECFEFD0E2DEBFCDBF11E0A0E0B1E088
:10010000E0EEFCE200E00BBF02C007900D92AA35C2
:10011000B107D9F722E0AAE5B1E001C01D92AB33E7
:10012000B207E1F70E94E30B0C946E160C940000EA
:100130001F920F920FB60F9211240BB60F922F93AE
:100140003F934F935F936F937F938F939F93EF931F
:10015000FF9318B88EB18C7F8EB95F9880E090E0E5
:100160005AE025E02A95F1F700005E9845E04A95AF
:10017000F1F7000020912602FC01529FE00DF11DD5
:100180001124EE0FFF1FE35AFE4F20813181369577
:1001900027953695279522B94BB120912602FC016F
:1001A000529FE00DF11D1124EE0FFF1FE35AFE4F89
:1001B00020813181237033274C7F422B41BB65E086
:1001C0006A95F1F700005E9A01968A30910549F62A
:1001D00075E07A95F1F700005F9A2091260289E098
:1001E00090E0AC01421B51094230510584F44EB1FC
:1001F00020912602BC01621B710981E090E0062E6D
:1002000001C0880F0A94EAF7482B4EB90EC08091BE
:10021000260227E030E0281B310981E090E0022E21
:1002200001C0880F0A94EAF788B975E37A95F1F767
:100230000000809126028F5F809326028091260223
:100240008A3010F010922602FF91EF919F918F91CA
:100250007F916F915F914F913F912F910F900BBEC6
:100260000F900FBE0F901F9018950A9758F477FDC6
:1002700009C06A30710534F457FD04C081E04A308A
:1002800051050CF080E00895FF920F931F93CF93D8
:10029000DF93F82EEB018A010E9435018823C9F013
:1002A0008AE0809FF001819FF00D1124EC0FFD1F6B
:1002B000EE0FFF1FE35AFE4F4081518121E030E0F5
:1002C00002C0220F331FFA94E2F7242B352B31831F
:1002D0002083DF91CF911F910F91FF900895FF929E
:1002E0000F931F93CF93DF93F82EEB018A010E94A7
:1002F00035018823D9F08AE0809FF001819FF00DBD
:100300001124EC0FFD1FEE0FFF1FE35AFE4F40813B
:10031000518121E030E002C0220F331FFA94E2F74E
:10032000209530952423352331832083DF91CF918D
:100330001F910F91FF900895FF920F931F93CF93FA
:10034000DF93F82EEB018A010E9435018823D1F05A
:100350008AE0809FF001819FF00D1124EC0FFD1FBA
:10036000EE0FFF1FE35AFE4F4081518121E030E044
:1003700002C0220F331FFA94E2F72423352381E0D1
:10038000232B09F480E0DF91CF911F910F91FF9013
:100390000895CF92DF92EF92FF920F931F93CF9326
:1003A000DF93EC018B017A0169010E9435018823FA
:1003B000D9F0A701B801CA94CD2859F4CE01DF9134
:1003C000CF911F910F91FF90EF90DF90CF900C9401
:1003D0004401CE01DF91CF911F910F91FF90EF90DB
:1003E000DF90CF900C946F01DF91CF911F910F910F
:1003F000FF90EF90DF90CF9008958A30910540F5FF
:1004000041E050E002C0440F551F8A95E2F720E01A
:1004100030E0AAE01AC0A89FF001A99FF00D1124B6
:10042000E20FF31FEE0FFF1FE35AFE4F6081718151
:10043000642B752B7183608301968A30910559F77F
:100440002F5F3F4F2A30310519F080E090E0E3CF75
:1004500008958A309105B8F420E030E06AE04FEF6B
:100460005FEF629FF001639FF00D1124E80FF91F09
:10047000EE0FFF1FE35AFE4F518340832F5F3F4F24
:100480002A30310571F708958A309105C0F420E0D3
:1004900030E06AE0689FA001699F500D11248FEF42
:1004A0009FEFFA01E20FF31FEE0FFF1FE35AFE4F1B
:1004B000918380832F5F3F4F2A30310591F7089554
:1004C000982F862F993739F09A3741F0983749F4A9
:1004D00090E00C94FD0190E00C94290290E00C94C3
:1004E0004402089540E050E0AAE017C0A29FF00146
:1004F000A39FF00D1124E40FF51FEE0FFF1FE35A29
:10050000FE4F918380832F5F3F4F2A30310571F773
:100510004F5F5F4F4A30510519F020E030E0E6CFE1
:10052000089520E030E04AE016C0489FF001499F5E
:10053000F00D1124E20FF31FEE0FFF1FE35AFE4FE1
:100540001182108201968A30910579F72F5F3F4F13
:100550002A30310519F080E090E0E7CF089520E0DF
:1005600030E008C0EFE9FFE03197F1F700C000008C
:100570002F5F3F4F28173907ACF308955F926F92B2
:100580007F928F929F92AF92BF92CF92DF92EF9223
:10059000FF920F931F93CF93DF93782E5B01C12CB3
:1005A000D12C79E0872E912C8FEFA816B80621F078
:1005B0007401EC18FD0801C07601F701319697012E
:1005C000215031098FEFA816B80619F46E2E5F2E50
:1005D00002C0622E532E00E010E036C08AE7781287
:1005E0000BC0462D552DBE01C8010E949C01282F2D
:1005F00030E0A701BE010DC089E778120CC0AE0142
:10060000662D752DC8010E949C01282F30E0AE0197
:10061000B701C8010EC088E778120DC0A801BE015D
:10062000862D952D0E949C01282F30E0A801BE0147
:10063000C7010E94C9012196CA30D10579F60F5F22
:100640001F4F0A30110519F0C0E0D0E0C7CF8FEF7F
:10065000C81AD80A8AE0C816D10409F0A5CFAB2081
:10066000A09421F469E0E62EF12C02C0E12CF12CDB
:1006700000E010E01EC08AE7781203C0A701BE01A7
:1006800005C089E7781204C0AE01B701C80106C0F1
:1006900088E7781205C0A801BE01C7010E946F015A
:1006A0002196CA30D10539F70F5F1F4F0A30110567
:1006B00019F0C0E0D0E0DFCFDF91CF911F910F9113
:1006C000FF90EF90DF90CF90BF90AF909F908F9072
:1006D0007F906F905F9008950F931F93CF93DF9358
:1006E000082FEB0110E00E949102612F802F0E94E1
:1006F0006002CE010E94AF021F5F1A30A1F718E01E
:100700000E949102612F802F0E946002CE010E9400
:10071000AF021150A8F7DF91CF911F910F910C9468
:1007200091027F928F929F92AF92BF92CF92DF926F
:10073000EF92FF920F931F93CF93DF93982E862E05
:10074000742E7901C0E0D0E089E0C82ED12C9AE067
:10075000A92EB12C89E078120DC086010C1B1D0B4F
:10076000A5014C1B5D0B682D70E0892D90E00E9467
:100770006F010AC0AE0141505109682D70E0892D0A
:1007800090E00E946F018E01A801682D70E0892D14
:1007900090E00E944401C7010E94AF022196CA3036
:1007A000D105C1F6DF91CF911F910F91FF90EF908E
:1007B000DF90CF90BF90AF909F908F907F900895E3
:1007C0006F927F928F929F92AF92BF92CF92DF9261
:1007D000EF92FF920F931F93CF93DF933C014B0156
:1007E0000E94910200E010E034E0E32EF12C16C0EC
:1007F0000E949915B7010E94DD13029734F040E082
:1008000050E0BE01C8010E9444012196CA30D105C2
:1008100079F70F5F1F4F0A301105D9F0C0E0D0E023
:10082000E7CF40E050E0BE01C8010E949C01811169
:1008300006C049E050E0BE01C8010E944401219673
:10084000CA30D10571F70F5F1F4F0A30110519F437
:100850002EC000E010E0C0E0D0E0E3CF0E94991588
:10086000B5010E94DD138C01015011090E949915F8
:10087000B5010E94DD137C0181E0E81AF108CD2B5F
:1008800019F4C9E0D0E002C0C0E0D0E0AE01B70189
:10089000C8010E949C01882331F094014C2F6E2DD9
:1008A000802F0E9491038FEFC81AD80A07C0C0E0BA
:1008B000D0E0C12CD12C2AE0A22EB12CC614D70432
:1008C0006CF2DF91CF911F910F91FF90EF90DF902D
:1008D000CF90BF90AF909F908F907F906F900C942F
:1008E00091024F925F926F927F928F929F92AF92FE
:1008F000BF92CF92DF92EF92FF920F931F93CF930D
:10090000DF933C016B01C0E0D0E044E0442E512C69
:100910005AE0E52EF12C29C00E949915B2010E94DF
:10092000DD135C0100E010E014C00E9499154C0139
:100930000E949915B7010E94DD139C01C401B70103
:100940000E94DD1349E050E0B9010E9444010F5FAD
:100950001F4F0A151B054CF3C6010E94AF026FEF33
:100960007FEF8AE70E94BE022196C615D705A4F242
:10097000DF91CF911F910F91FF90EF90DF90CF907B
:10098000BF90AF909F908F907F906F905F904F90AF
:1009900008954F925F926F927F928F929F92AF9243
:1009A000BF92CF92DF92EF92FF920F931F93CF935C
:1009B000DF937C016B01C0E0D0E064E0462E512C57
:1009C0000AE010E02AC00E949915B2010E94DD13CE
:1009D0005C01612C712C15C00E9499154C010E947C
:1009E0009915B8010E94DD139C01C401B8010E9451
:1009F000DD13A90169E070E00E9444018FEF681ADD
:100A0000780A6A147B0444F3C6010E94AF026FEFB8
:100A10007FEF89E70E94BE022196CE15DF059CF28A
:100A2000DF91CF911F910F91FF90EF90DF90CF90CA
:100A3000BF90AF909F908F907F906F905F904F90FE
:100A400008958F929F92AF92BF92CF92DF92EF92D2
:100A5000FF920F931F93CF93DF936C01EB01E12C77
:100A6000F12C0AE010E027C00E9499154C010E9469
:100A700099155C010E949915FC01C401B8010E94FE
:100A8000DD134C01C501B8010E94DD139C01CF01AB
:100A9000B8010E94DD13A401B9010E944401CE01F6
:100AA0000E94AF02D7FD02C0219702C0C6E0D0E08D
:100AB0008FEFE81AF80AEC14FD04B4F2DF91CF913D
:100AC0001F910F91FF90EF90DF90CF90BF90AF906C
:100AD0009F908F9008956F927F928F929F92AF9286
:100AE000BF92CF92DF92EF92FF920F931F93CF931B
:100AF000DF9300D000D01F92CDB7DEB76C01E0E8E5
:100B0000AE2EB12C44C0BE016F5F7F4F0E943C0BE4
:100B100000E010E020C0C5010E2C02C0959587951D
:100B20000A94E2F7F401208130E082239323892B99
:100B300031F0A70169E070E0C3010E944401FFEFBA
:100B4000EF1AFF0A88E0E816F10429F70F5F1F4F3C
:100B50000530110571F0E12CF12C88248394912C3F
:100B60008C0E9D1E800E911E3801E2E06E0E711CEF
:100B7000D2CF06E010E084E690E00E94AF026FEF73
:100B80007FEF89E70E94BE0201501109A1F7F6012B
:100B900081916F018111B7CF0AE010E084E690E007
:100BA0000E94AF026FEF7FEF89E70E94BE02015003
:100BB0001109A1F70F900F900F900F900F90DF91F8
:100BC000CF911F910F91FF90EF90DF90CF90BF904A
:100BD000AF909F908F907F906F900895AF92BF924B
:100BE000CF92DF92EF92FF920F931F93CF93DF93F9
:100BF0007C01EB0127C000E010E06701CC0EDD1E98
:100C0000560181E0A81AB108F5018081682F6F7044
:100C1000A80170E082958F7090E00E949C01F6011F
:100C20009081692F6F70282F30E0A80170E0892F24
:100C300082958F7090E00E94C9010F5F1F4F0A30AC
:100C4000110511F721971C161D06ACF2C0E0D0E08B
:100C5000F7018081682F6F70AE0170E082958F7010
:100C600090E00E946F012196CA30D10589F7DF918B
:100C7000CF911F910F91FF90EF90DF90CF90BF9099
:100C8000AF9008954F925F926F927F928F929F9252
:100C9000AF92BF92CF92DF92EF92FF920F931F938A
:100CA000CF93DF93CDB7DEB7A9970FB6F894DEBF29
:100CB0000FBECDBF8C017B0144E250E0BE016F5FEF
:100CC0007F4F80E00E94220B37016E012AE2C20EA4
:100CD000D11C48E0A42EB12C41C0BE016B5D7F4FFA
:100CE0000E943C0B35E2E32EF12CEC0EFD1EF701C9
:100CF00081907F0128E0422E512C912CC50184194E
:100D00009509940102C0359527958A95E2F7A201CD
:100D100069E070E020FF05C089E090E00E94440196
:100D200004C089E090E00E946F0131E0431A51084D
:100D300029F764E270E0CE0101960E94EE05C80139
:100D40000E94AF02EC14FD0491F664E270E0CE0163
:100D500001960E94EE05C8010E94AF02F301819145
:100D60003F018111BACF9CE1E92EF12C64E270E0E1
:100D7000CE0101960E94EE05C8010E94AF02F1E08B
:100D8000EF1AF10899F7A9960FB6F894DEBF0FBED7
:100D9000CDBFDF91CF911F910F91FF90EF90DF902A
:100DA000CF90BF90AF909F908F907F906F905F900B
:100DB0004F9008957F928F929F92AF92BF92CF9261
:100DC000DF92EF92FF920F931F93CF93DF93CDB7F4
:100DD000DEB7A4970FB6F894DEBF0FBECDBF7C017F
:100DE000862E5A0144E250E0BE016F5F7F4F80E0E3
:100DF0000E94220BC12CD12C59E0752E3CC0672DCE
:100E0000601B492D882D0E945C0BA80169E070E0F1
:100E1000882329F089E090E00E94440104C089E021
:100E200090E00E946F010F5F1F4F0A30110539F7E4
:100E3000C7010E94AF0264E270E0CE0101960E94F9
:100E4000EE0593948AE0981202C004C0912C00E051
:100E500010E0D5CF0AE110E0C7010E94AF0264E2C2
:100E600070E0CE0101960E94EE0501501109A1F734
:100E70008FEFC81AD80ACA14DB0444F30AE010E062
:100E8000C7010E94AF0264E270E0CE0101960E94A9
:100E9000EE0501501109A1F7A4960FB6F894DEBF34
:100EA0000FBECDBFDF91CF911F910F91FF90EF90BB
:100EB000DF90CF90BF90AF909F908F907F900895DC
:100EC0002F923F924F925F926F927F928F929F925A
:100ED000AF92BF92CF92DF92EF92FF920F931F9348
:100EE000CF93DF93CDB7DEB7C55CD4400FB6F8948F
:100EF000DEBF0FBECDBFC254DB4F99838883CE5B6C
:100F0000D440C054DB4F79836883C05CD44080E018
:100F100090E00E947202C854DB4F19821882C85BAD
:100F2000D4409E012F543B4FCF54DB4F398328834D
:100F3000C15BD4404EC20E94991565E070E00E94EA
:100F4000DD13BC01882777FD8095982F0E9423121E
:100F50005B016C010E94991565E070E00E94DD1351
:100F6000BC01882777FD8095982F0E9423127B0172
:100F70008C010E94991562E070E00E94DD13BC01B3
:100F8000882777FD8095982F0E94231220E030E07B
:100F900040EC50E40E942011362E272ECD54DB4F1A
:100FA0008883C35BD440C954DB4F9883C75BD4406C
:100FB00020E030E040E050E46A2D7B2D8C2D9D2D0B
:100FC0000E9420112B013C0120E030E040E050E481
:100FD0006E2D7F2D802F912F0E9420114B015C01DF
:100FE000EE24E394F12C00E010E02BC0682D792D65
:100FF0008A2D9B2D0E94F011C654DB4F68837983A4
:101000008A839B83CA5BD440642D752D862D972DD2
:101010000E94F011DC01CB01A801C654DB4F6881AE
:101020007981CA5BD4400E944401C7010E94AF028B
:1010300080E090E00E9472020F5F1F4F32E3E30EE8
:10104000F11CB801882777FD8095982F0E94231204
:10105000D101CD54DB4FF881C35BD440C954DB4F81
:10106000E881C75BD4402B2F322D4F2F5E2F0E947B
:10107000841187FDBBCF8E010F5F1F4F842D952DEF
:10108000A62DB72DF80180839183A283B383882D89
:10109000992DAA2DBB2D84839583A683B783A101A7
:1010A000CD54DB4F3881C35BD440C954DB4F28811A
:1010B000C75BD440852F922DA32FB22F80879187B5
:1010C000A287B3870E9499159C01CC53DB4F88837C
:1010D000C45CD440CB53DB4F3883C55CD4400E9402
:1010E00099156C010E9499157C01CC53DB4F288126
:1010F000C45CD440CB53DB4F3881C55CD440C901BC
:1011000068EC70E00E94DD13BC01882777FD8095B4
:10111000982F0E94231220E030E048EC52E40E9415
:1011200088119B01AC0160E070E080E89FE30E94C1
:101130001F11F8016487758786879787C60168EC59
:1011400070E00E94DD13BC01882777FD8095982F01
:101150000E94231220E030E048EC52E40E94881103
:101160009B01AC0160E070E080E89FE30E941F11EA
:10117000F801608B718B828B938BC70168EC70E0F8
:101180000E94DD13BC01882777FD8095982F0E946F
:10119000231220E030E048EC52E40E9488119B01C9
:1011A000AC0160E070E080E89FE30E941F11F8014D
:1011B000648B758B868B978B085E1F4FCF54DB4FEC
:1011C00028813981C15BD4400217130709F056CF3B
:1011D000612C712CB301882777FD8095982F0E9490
:1011E00023122DEC3CEC4CEC5DE30E94201120E03E
:1011F00030E040EA51E40E9488110E9436136B01EE
:101200007C0120E030E040E251E40E94D31220E073
:1012100030E040E85FE30E9420111B018C0120E0D8
:1012200030E040E05FE3C701B6010E94D312C95429
:10123000DB4F6883C75BD440C654DB4F7883CA5BFF
:10124000D440CE53DB4F8883C25CD440CD53DB4FB8
:101250009883C35CD44044244394512C4C0E5D1EAF
:10126000222D332D402F512FF201648575858685FF
:1012700097850E9488119B01AC01F2016081718108
:10128000828193810E9420116B017C01F2016083B5
:10129000718382839383222D332D402F512F6089B8
:1012A0007189828993890E9488119B01AC01F201A6
:1012B00064817581868197810E9420114B015C01B8
:1012C000F2016483758386839783222D332D402F0B
:1012D000512F64897589868997890E948811F20146
:1012E00020853185428553850E942011C954DB4FEA
:1012F000B881C75BD440C654DB4FA881CA5BD440D9
:10130000CE53DB4FF881C25CD440CD53DB4FE88134
:10131000C35CD4402B2F3A2F4F2F5E2F0E941F11FA
:101320009B01462F532F682F792FF2014087518759
:1013300062877387622F732F0E94F011CD54DB4FA9
:10134000688379838A839B83C35BD440C501B401DE
:101350000E94F0114B015C01C701B6010E94F0111F
:10136000DC01CB01CD54DB4F48815981C35BD440B4
:10137000B4010E944401F8E14F0E511CCF54DB4FE1
:1013800028813981C15BD4404216530609F068CFE9
:10139000C054DB4F88819981C05CD4400E94AF0269
:1013A00080E090E00E9472023FEF631A730A89E1C5
:1013B0006816710409F00ECFC854DB4FE881F9813B
:1013C000C85BD4403196C854DB4FF983E883C85BCF
:1013D000D440C854DB4F28813981C85BD440C25403
:1013E000DB4F88819981CE5BD440281739070CF4F4
:1013F000A2CDCB53DB4F0FB6F894DEBF0FBECDBFEF
:10140000DF91CF911F910F91FF90EF90DF90CF90E0
:10141000BF90AF909F908F907F906F905F904F9014
:101420003F902F9008956F927F929F92AF92BF92BC
:10143000CF92DF92EF92FF920F931F93CF93DF93A0
:1014400000D0CDB7DEB7982E6A0180E090E06983C6
:101450007A830E9472026981E62E7A81F72E00E07B
:1014600010E0E9E0AE2EB12C30C0F701E60DF71D1B
:101470008081C114D10429F09501281B3109C901CB
:1014800001C090E03AE7931203C0AC01B30105C07C
:10149000E9E79E1204C0A301BC01C80105C0F8E73A
:1014A0009F1204C0A801B3010E9444012FEF621AE9
:1014B000720A3AE063167104C1F60F5F1F4F8AE0AB
:1014C000E80EF11C0A30110519F0612C712CCDCFFA
:1014D0000F900F90DF91CF911F910F91FF90EF90A0
:1014E000DF90CF90BF90AF909F907F906F900895C6
:1014F0002F923F925F926F927F928F929F92AF92C4
:10150000BF92CF92DF92EF92FF920F931F93CF93F0
:10151000DF93CDB7DEB7C85CD1090FB6F894DEBF54
:101520000FBECDBF582E6B014A0159018E010753E2
:101530001F4F22242394312C2C0E3D1E85E6682E4D
:10154000712C6C0E7D1E9AE0E92EF12CF3011192A4
:101550003F010E949915B7010E94DD13F1018193AB
:101560001F016016710691F7AAE0EA2EF12C3E01E8
:10157000F5E66F0E711C16C080819D91891710F4DD
:101580008F5F80833196E017F107B1F7A501B301B2
:10159000852D0E94130AC6010E94AF0281E0E81A5D
:1015A000F10831F0DE011196FE01EB59FF4FE4CF57
:1015B000FE01319689E08193E615F705E1F7C40154
:1015C0000E94AF02FAE0EF2EF12C1DC080819D91A8
:1015D000891710F48F5F80838081981710F48150F1
:1015E00080833196E017F10789F7A501BE016B5999
:1015F0007F4F852D0E94130AC6010E94AF02E1E0D1
:10160000EE1AF10831F0DE011196FE01EB59FF4FA1
:10161000DDCFC853DF4F0FB6F894DEBF0FBECDBF8E
:10162000DF91CF911F910F91FF90EF90DF90CF90BE
:10163000BF90AF909F908F907F906F905F903F9002
:101640002F900895813019F020E030E002C02CE1A5
:1016500030E0CB01DB01261B370B07C0F901EA0F95
:10166000FB1FE554FF4FE491ED93BD01681B790B1F
:10167000641775079CF30895FF920F931F93CF9300
:10168000DF93805295E0899F80011124C62FD72FC8
:1016900085E0F82E0C1B1D0BC8018C0F9D1F8C5B69
:1016A0009F4F0E94D0158993FA94B1F7DF91CF91A3
:1016B0001F910F91FF900895CF92DF92EF92FF92CA
:1016C0000F931F93CF93DF931F92CDB7DEB7C62E34
:1016D000D12C9AE0F92E082F10E09601F89E200DEB
:1016E000311D1124C9018050904049830E94D015BA
:1016F000E82E0F5F1F4FF09EC001F19E900D112448
:101700008C0D9D1D805090400E94D0153E2D20E0F4
:10171000B901682BCB01498102C0969587954A95FE
:10172000E2F781700F90DF91CF911F910F91FF90A1
:10173000EF90DF90CF9008958FEF81B99BED94B932
:1017400087B980EC8AB983E08DB980BB12B815B82F
:1017500018B81BB81EB811BA8CE390E090938900BA
:1017600080938800E1E8F0E080818C6080831092B3
:10177000850010928400EFE6F0E080818260808333
:1017800088E092E09093990080939800E1E9F0E07E
:1017900080818D6080831092950010929400E1E723
:1017A000F0E080818260808387E690E09093CD00B6
:1017B0008093CC0086E08093CA0088E18093C900C2
:1017C0001092CE0008950E949C0B789482E0809342
:1017D000270288EE93E00E94AF028091270283FFE8
:1017E00005C00E940F0F0E94880FFDCF8FEF9FEF63
:1017F0000E94720288EE93E00E94AF020E94910262
:1018000043E050E060E080E590E00E94DA066EE19F
:1018100071E080E590E00E944206CAE0D0E00E94BC
:101820005F102197E1F764E670E08AE790E00E949C
:101830006C0364E670E088E790E00E946C0364E665
:1018400070E089E790E00E946C030E94910264E2DC
:1018500071E084E690E00E94420662E370E08EE16F
:1018600090E00E94600760E570E088EC90E00E94E4
:10187000710466E470E080E590E00E94C9040E9473
:10188000910264E670E080E293E00E94210580ED21
:1018900097E00E94AF0260E570E082E390E00E9472
:1018A000E00320E030E040E253E060E570E08AE7EA
:1018B0000E94780A21E030E040E253E060E570E009
:1018C0008AE70E94780A9ACF1F920F920FB60F9262
:1018D00011242F933F934F935F938F939F93109275
:1018E000270285B1896085B985B1867F85B980E099
:1018F00090E043B150E04095509542FB222720F9FB
:10190000082E01C0220F0A94EAF740912702422BC9
:101910004093270255B1526155B955B15D7E55B915
:1019200001968830910529F746FF06C080912E0266
:10193000833511F08EE427C047FF06C080912E0248
:101940008E3411F083E51FC044FF06C080912E0243
:10195000873511F085E417C045FF06C080912E023F
:10196000853411F087E50FC041FF06C080912E023B
:10197000843411F085E507C040FF07C080912E0236
:10198000853519F084E48093290242FF03C08FEF6C
:1019900080935C0143FF03C08FEF809328029F91E7
:1019A0008F915F914F913F912F910F900FBE0F90AC
:1019B0001F901895CF93DF930E949915CAE0D0E04D
:1019C000BE010E94DD1390932B0280932A020E9495
:1019D0009915BE010E94DD13909334028093330267
:1019E0000E949915BE010E94DD1390932D028093F1
:1019F0002C02DF91CF91089540912C0250912D023D
:101A0000609133027091340280912A0290912B02EE
:101A10000C944401E0913102F0913202408150E097
:101A2000E0912F02F0913002808190E0E091350248
:101A3000F0913602208130E060912E026E3469F020
:101A400028F46434B9F0653469F50CC0653579F073
:101A5000673529F0633531F508C001960DC0415056
:101A600051090AC04F5F5F4F07C0019705C02F5F44
:101A70003F4F02C02150310960912A0270912B0220
:101A80004617570779F44091330250913402841776
:101A9000950741F481E040912C0250912D022417CA
:101AA000350709F080E0089585E48093290280E0FD
:101AB00090E045E024E0E0913102F0913202E80F3D
:101AC000F91F342F381B3083E0912F02F091300240
:101AD000E80FF91F2083E0913502F0913602E80FFC
:101AE000F91F208301968330910529F783E090E068
:101AF0002FEFE0913102F0913202E80FF91F2083BD
:101B0000E0912F02F0913002E80FF91F2083E0915D
:101B10003502F0913602E80FF91F20830196883CC8
:101B2000910539F70895EF92FF920F931F93CF938A
:101B3000DF93E0913102F0913202C081D0E0E09178
:101B40002F02F0913002008110E0E0913502F09117
:101B50003602E080F12C80912E028E3469F028F458
:101B60008434C1F0853461F50CC0853579F0873552
:101B700031F0833529F507C00F5F1F4F0EC0219745
:101B80000CC021960AC00150110907C08FEFE81A56
:101B9000F80A03C081E0E81AF108A701B801CE01F4
:101BA0000E943501882361F0A701B801CE010E948F
:101BB0009C01882339F00E940A0D91E0811103C035
:101BC00090E001C091E0892FDF91CF911F910F919B
:101BD000FF90EF9008959F92AF92BF92CF92DF92C5
:101BE000EF92FF920F931F93CF93DF93E091310217
:101BF000F0913202008110E0E0912F02F09130026A
:101C0000E080F12CE0913502F0913602C080D12CB9
:101C100080912E028E3469F028F48434F1F08534FA
:101C200059F410C08535A9F0873549F0833521F482
:101C30000CC08FEFE81AF80AC0E0D0E04DC00150A8
:101C40001109FACF0F5F1F4FF7CF81E0E81AF108B3
:101C5000F3CF8FEFC81AD80AEFCF81E0C81AD108A6
:101C6000EBCFE0913102F0913202EC0FFD1FA0802A
:101C7000E0912F02F0913002EC0FFD1F9080E09177
:101C80003502F0913602EC0FFD1FB0804B2D50E075
:101C9000692D70E08A2D90E00E9435018823A9F01B
:101CA000E0913102F0913202EC0FFD1F0083E091D0
:101CB0002F02F0913002EC0FFD1FE082E09135021F
:101CC000F0913602EC0FFD1FC08221960A2D10E024
:101CD000E92CF12CCB2CD12CA601B701C8010E9414
:101CE0003501882321F0C83CD10509F0BACFDF9136
:101CF000CF911F910F91FF90EF90DF90CF90BF9009
:101D0000AF909F900895CF93DF93C0E0D0E001C0E3
:101D10002196E0913502F0913602EC0FFD1F4081D3
:101D2000E0912F02F0913002EC0FFD1F6081E091F5
:101D30003102F0913202EC0FFD1F50E070E0808123
:101D400090E00E9435018111E3CF20913102309162
:101D50003202CE010197F901E80FF91F4081F90124
:101D6000EC0FFD1F408320912F0230913002F901CA
:101D7000E80FF91F4081F901EC0FFD1F408320910E
:101D8000350230913602F901E80FF91F8081C20F48
:101D9000D31F8883DF91CF910895CF93DF93C0E065
:101DA000D0E01EC0E0913502F0913602EC0FFD1F2D
:101DB0004081E0912F02F0913002EC0FFD1F608115
:101DC000E0913102F0913202EC0FFD1F50E070E023
:101DD000808190E00E9444012196C83CD105E1F049
:101DE000E0913502F0913602EC0FFD1F4081E09149
:101DF0002F02F0913002EC0FFD1F6081E091310263
:101E0000F0913202EC0FFD1F50E070E0808190E015
:101E10000E9435018111C6CFDF91CF9108950E94B4
:101E200091026EE171E080E590E00E9442060E941E
:101E3000910283E391E00E946B050C949102CF9391
:101E4000DF930E949102CAE0D0E00E94CD0E84E6AA
:101E500090E00E94AF020E94910284E690E00E940E
:101E6000AF02219791F7DF91CF91089506C060E509
:101E700070E082E090E00E94710480912702882344
:101E8000B1F30C940F0FCF93DF9300D000D01F92CB
:101E9000CDB7DEB74AE050E0BE016F5F7F4F0E94D2
:101EA000AF15CE0101960E946B050F900F900F9019
:101EB0000F900F90DF91CF910895CF93DF93EC01B6
:101EC0008BE092E00E94D8158C179D0768F4BE0144
:101ED0008BE092E00E94DE1566E371E080E590E021
:101EE0000E94420681E001C080E0DF91CF91089519
:101EF00010925C0106C069E471E080E590E00E9408
:101F0000420680915C018823B1F310925C01089530
:101F1000AF92BF92CF92DF92EF92FF920F931F93F7
:101F2000CF93DF93CDB7DEB764970FB6F894DEBFDB
:101F30000FBECDBF1092280210925C0161E070E0EC
:101F400088EC90E00E94F11380933102909332026A
:101F500061E070E088EC90E00E94F11380932F0222
:101F60009093300261E070E088EC90E00E94F11301
:101F7000809335029093360284E1EAE0F1E0CC24CC
:101F8000C394D12CCC0EDD1ED60101900D928A9502
:101F9000E1F785E480932E020E94540D0E94DA0C32
:101FA0000E94CD0E00E010E0E12CF12C2AE0A22EE0
:101FB000B12C35C00E940A0D8823B1F00E94830E17
:101FC0000E94DA0C0F5F1F4FC801B5010E94C913B0
:101FD000892B51F40115110539F089E0E816F10457
:101FE0001CF48FEFE81AF80A0E94EB0D0E94910290
:101FF0000E94CD0E0E94FC0CF701EE0FFF1FEC0DAE
:10200000FD1D808191810E94AF0280915C01882337
:1020100031F00E94780F10925C011092280280919A
:10202000290280932E020E94930D8111C3CF0E943A
:102030001F0FC8010E94430FC8010E945D0F012BB2
:1020400051F480915A0190915B01019690935B014C
:1020500080935A0104C010925B0110925A01809142
:102060005A0190915B01039744F06FE471E080E5C1
:1020700090E00E9442060E94360F809131029091BA
:1020800032020E94AA1480912F02909130020E9485
:10209000AA14809135029091360264960FB6F89496
:1020A000DEBF0FBECDBFDF91CF911F910F91FF908B
:1020B000EF90DF90CF90BF90AF900C94AA14EF9266
:1020C000FF920F931F93CF93DF93109228021092E9
:1020D0005C0161E070E088EC90E00E94F113809375
:1020E00031029093320261E070E088EC90E00E944F
:1020F000F11380932F029093300261E070E088EC3E
:1021000090E00E94F113809335029093360285E4AB
:1021100080932E020E94540D0E94DA0C0E94CD0E74
:10212000C5E5D4E415E407E53EE4F32E43E5E42EEB
:1021300056C0281B390B121613061CF4E0922E020F
:1021400032C0F0922E022FC0E0913102F0913202A3
:10215000208130E080912A0290912B0228173907C4
:1021600059F0281B390B121613061CF400932E028B
:102170001AC010932E0217C0E0913502F09136027A
:10218000208130E080912C0290912D022817390790
:1021900051F0281B390B121613061CF4D0932E0293
:1021A00002C0C0932E020E94930D882339F10E9431
:1021B0000A0D882321F00E94830E0E94DA0C0E94EF
:1021C000EB0D0E9491020E94CD0E0E94FC0C86E94C
:1021D00090E00E94AF0280912802811129C0E09115
:1021E0002F02F0913002208130E0809133029091F3
:1021F00034022817390709F09CCFA6CF0E941F0F81
:1022000080913102909132020E94AA1480912F0293
:10221000909130020E94AA1480913502909136026A
:10222000DF91CF911F910F91FF90EF900C94AA1422
:10223000DF91CF911F910F91FF90EF90089550582B
:10224000BB27AA270ED075C166D130F06BD120F024
:1022500031F49F3F11F41EF45BC10EF4E095E7FBEF
:1022600051C1E92F77D180F3BA176207730784074A
:10227000950718F071F49EF58FC10EF4E0950B2EC2
:10228000BA2FA02D0B01B90190010C01CA01A001C8
:102290001124FF27591B99F0593F50F4503E68F123
:1022A0001A16F040A22F232F342F4427585FF3CF64
:1022B000469537952795A795F0405395C9F77EF435
:1022C0001F16BA0B620B730B840BBAF09150A1F07E
:1022D000FF0FBB1F661F771F881FC2F70EC0BA0F04
:1022E000621F731F841F48F4879577956795B7958C
:1022F000F7959E3F08F0B3CF9395880F08F0992784
:10230000EE0F979587950895D9D008F481E0089548
:102310000CD00FC107D140F0FED030F021F45F3F68
:1023200019F0F0C0511139C1F3C014D198F39923B9
:10233000C9F35523B1F3951B550BBB27AA27621789
:102340007307840738F09F5F5F4F220F331F441FCE
:10235000AA1FA9F333D00E2E3AF0E0E830D0915006
:102360005040E695001CCAF729D0FE2F27D0660FF3
:10237000771F881FBB1F261737074807AB07B0E832
:1023800009F0BB0B802DBF01FF2793585F4F2AF048
:102390009E3F510568F0B6C000C15F3FECF3983E28
:1023A000DCF3869577956795B795F7959F5FC9F7A5
:1023B000880F911D9695879597F90895E1E0660F2E
:1023C000771F881FBB1F621773078407BA0720F0A7
:1023D000621B730B840BBA0BEE1F88F7E095089510
:1023E00004D06894B111D9C00895BCD088F09F572B
:1023F00090F0B92F9927B751A0F0D1F0660F771F51
:10240000881F991F1AF0BA95C9F712C0B13081F030
:10241000C3D0B1E00895C0C0672F782F8827B85F78
:1024200039F0B93FCCF3869577956795B395D9F791
:102430003EF490958095709561957F4F8F4F9F4F9B
:102440000895E89409C097FB3EF4909580957095A7
:1024500061957F4F8F4F9F4F9923A9F0F92F96E9F0
:10246000BB279395F695879577956795B795F11165
:10247000F8CFFAF4BB0F11F460FF1BC06F5F7F4F02
:102480008F4F9F4F16C0882311F096E911C0772314
:1024900021F09EE8872F762F05C0662371F096E81D
:1024A000862F70E060E02AF09A95660F771F881FEC
:1024B000DAF7880F9695879597F90895990F000890
:1024C000550FAA0BE0E8FEEF16161706E807F90706
:1024D000C0F012161306E407F50798F0621B730BA1
:1024E000840B950B39F40A2661F0232B242B252B22
:1024F00021F408950A2609F4A140A6958FEF811DC5
:10250000811D089597F99F6780E870E060E0089565
:102510009FEF80EC089500240A94161617061806FB
:102520000906089500240A941216130614060506D7
:102530000895092E0394000C11F4882352F0BB0F68
:1025400040F4BF2B11F460FF04C06F5F7F4F8F4FCB
:102550009F4F089557FD9058440F551F59F05F3F06
:1025600071F04795880F97FB991F61F09F3F79F0B5
:1025700087950895121613061406551FF2CF469537
:10258000F1DF08C0161617061806991FF1CF8695B9
:102590007105610508940895E894BB27662777279D
:1025A000CB0197F908950BD0C4CFB5DF28F0BADF7F
:1025B00018F0952309F0A6CFABCF1124EECFCADFD8
:1025C000A0F3959FD1F3950F50E0551F629FF00146
:1025D000729FBB27F00DB11D639FAA27F00DB11D9F
:1025E000AA1F649F6627B00DA11D661F829F222728
:1025F000B00DA11D621F739FB00DA11D621F839FAF
:10260000A00D611D221F749F3327A00D611D231F84
:10261000849F600D211D822F762F6A2F11249F57D2
:1026200050408AF0E1F088234AF0EE0FFF1FBB1FF5
:10263000661F771F881F91505040A9F79E3F510594
:1026400070F060CFAACF5F3FECF3983EDCF3869545
:1026500077956795B795F795E7959F5FC1F7FE2B3F
:10266000880F911D9695879597F90895DF93D92F37
:102670002FD0E695D7952AED3FE049E45FE3B33AE2
:102680006207730784079507D7952AF0A2EA49ECF9
:102690009068E7DD4EDFE8E9F0E008D0DD0F0BF0F1
:1026A0003ED0DD0F0BF49058DF9108959F938F93E8
:1026B0007F936F93FF93EF939B01AC0174DFEF91D6
:1026C000FF9142D02F913F914F915F916CCF20CFDE
:1026D00049DFE8F3E894E0E0BB279F57F0F02AEDEC
:1026E0003FE049EC06C0EE0FBB0F661F771F881F47
:1026F00028F0B23A62077307840728F0B25A620BD7
:10270000730B840BE3959A9572F7803830F49A95A1
:10271000BB0F661F771F881FD2F7904809C09B0127
:10272000AC0160E070E080E89FE3F2CD9F3F31F0C4
:10273000915020F4879577956795B795880F911DEF
:102740009695879597F90895DF93CF931F930F93ED
:10275000FF92EF92DF927B018C01689405C0DA2E24
:10276000EF012DDFFE01E894A5912591359145916A
:102770005591AEF3EF0175DDFE019701A801DA94E2
:1027800079F7DF90EF90FF900F911F91CF91DF913C
:102790000895AA1BBB1B51E107C0AA1FBB1FA617A8
:1027A000B70710F0A61BB70B881F991F5A95A9F7FA
:1027B00080959095BC01CD01089597FB072E16F4E6
:1027C000009407D077FD09D00E94C91307FC05D0FB
:1027D0003EF4909581959F4F0895709561957F4F38
:1027E00008950F931F93CF93DF93689F8001699F94
:1027F000100D789F100D1124C8010E940F14C82FCE
:10280000D92F209731F0A80160E070E08C2F0E9452
:10281000A815CE01DF91CF911F910F9108950F93CD
:102820001F93CF93DF938230910510F482E090E004
:10283000E0913902F0913A0220E030E0C0E0D0E0CF
:1028400023C04081518148175907A8F048175907FC
:1028500061F482819381209719F09B838A832EC033
:1028600090933A028093390229C02115310529F04D
:102870004217530710F0A90102C0BE01DF01028117
:102880001381EF019A01F8013097D9F6211531052E
:1028900009F1281B390B2430310590F412968D91E3
:1028A0009C9113976115710521F0FB01938382833D
:1028B00004C090933A0280933902FD01329644C0DD
:1028C000FD01E20FF31F81939193225031092D9363
:1028D0003C933AC02091370230913802232B41F4C7
:1028E0002091020130910301309338022093370286
:1028F00020910001309101012115310541F42DB7DE
:102900003EB74091040150910501241B350BE09125
:102910003702F0913802E217F307A0F42E1B3F0BA9
:102920002817390778F0AC014E5F5F4F2417350741
:1029300048F04E0F5F1F5093380240933702819347
:10294000919302C0E0E0F0E0CF01DF91CF911F91C1
:102950000F910895EF92FF920F931F93CF93DF9300
:10296000009709F48FC0DC01129713961C921E92F7
:102970001297E0903902F0903A02E114F10489F4E0
:102980002D913C911197280F391F8091370290911A
:1029900038028217930789F5B0933802A093370263
:1029A00071C0E70120E030E001C0EA01CA17DB078F
:1029B00038F44A815B819E0141155105B1F722C06F
:1029C000BC0162507109FB01D383C2830081118174
:1029D000AC01400F511F4C175D0761F448815981CC
:1029E000400F511F4E5F5F4F518340834A815B818F
:1029F000538342832115310529F4B0933A02A09301
:102A0000390240C0F901B383A283E9016991799148
:102A1000C60FD71FAC17BD0779F4DC015E914E914C
:102A2000460F571F4E5F5F4F5183408312968D9123
:102A30009C91139793838283A0E0B0E002C0D701FA
:102A40007C01F701828193810097C9F7C701029643
:102A500020813181820F931F2091370230913802FB
:102A60002817390779F4109729F410923A02109236
:102A7000390204C013961C921E921297F0923802EB
:102A8000E0923702DF91CF911F910F91FF90EF906D
:102A900008958F929F92AF92BF92CF92DF92EF9262
:102AA000FF92CF93DF93EC01688179818A819B81CA
:102AB000611571058105910521F464E279ED8BE5DD
:102AC00097E02DE133EF41E050E00E9411164901FB
:102AD0005A019B01AC01A7EAB1E40E942D166B01DB
:102AE0007C01ACEEB4EFA50194010E943B16C60E2A
:102AF000D71EE81EF91EF7FE06C081E0C81AD108ED
:102B0000E10880E8F80AC882D982EA82FB82E89468
:102B1000D7F8EE24FF24C601DF91CF91FF90EF900C
:102B2000DF90CF90BF90AF909F908F9008950C94BE
:102B3000491586E091E00C944915A0E0B0E080933F
:102B4000060190930701A0930801B093090108952D
:102B5000DC0101C06D9341505040E0F70895FB0146
:102B60009F01E8944230C4F04532B4F44A3029F46D
:102B700097FB1EF4909581959F4F642F77270E94B5
:102B8000C913805D8A330CF0895D8193CB01009776
:102B9000A1F716F45DE251931082C9010C94E3157C
:102BA000F999FECF92BD81BDF89A992780B5089515
:102BB000A8E1B0E042E050E00C94F5150E94031645
:102BC000272F0C940416DC01FC01672F71917723E9
:102BD000E1F7329704C07C916D9370836291AE17D8
:102BE000BF07C8F30895DC01CB01FC01F999FECFC2
:102BF00006C0F2BDE1BDF89A319600B40D92415085
:102C00005040B8F70895262FF999FECF1FBA92BD0C
:102C100081BD20BD0FB6F894FA9AF99A0FBE0196BD
:102C20000895052E97FB16F4009407D057FD0DD09C
:102C30000E94401607FC09D07EF49095809570950F
:102C400061957F4F8F4F9F4F0895509540953095D8
:102C500021953F4F4F4F5F4F08950E946216A59FE9
:102C6000900DB49F900DA49F800D911D1124089587
:102C7000B7FF0C942D160E942D16821B930B0895FE
:102C8000A1E21A2EAA1BBB1BFD010DC0AA1FBB1F70
:102C9000EE1FFF1FA217B307E407F50720F0A21BE2
:102CA000B30BE40BF50B661F771F881F991F1A944F
:102CB00069F760957095809590959B01AC01BD0179
:102CC000CF010895A29FB001B39FC001A39F01D07F
:102CD000B29F700D811D1124911D0895F894FFCFAE
:102CE00000003B02200001000000F401C20190013D
:102CF0005E012C01FA00C800B400A0009600534EFB
:102D0000414B45004F4D454741205645524B53548A
:102D10004544003344004E455720484947485343F3
:102D20004F5245004D454E550050415553450047C3
:0A2D3000414D45204F56455200006A
:00000001FF
