:100000000C942A000C943C000C943C000C943C0092
:100010000C9408050C943C000C943C000C943C009F
:100020000C943C000C943C000C943C000C943C0060
:100030000C943C000C943C000C943C000C943C0050
:100040000C943C000C943C000C943C000C943C0040
:100050000C943C0011241FBECFE5D8E0DEBFCDBF1D
:1000600011E0A0E6B0E001C01D92A932B107E1F7AE
:100070000E94FE040C9425060C940000DF93CF939D
:1000800000D000D000D0CDB7DEB79A8389837C83BF
:100090006B835E834D8389819A819923CCF089811A
:1000A0009A818A309105A4F48B819C81992384F0F4
:1000B0008B819C818A3091055CF48D819E8199238E
:1000C0003CF08D819E818A30910514F481E001C05D
:1000D00080E026960FB6F894DEBF0FBECDBFCF915D
:1000E000DF910895DF93CF9300D000D000D0CDB73B
:1000F000DEB79A8389837C836B835E834D8389819A
:100100009A814B815C812D813E81BA01A9010E94B7
:100110003E008823B1F18D819E81880F991F9C013B
:10012000220F331F220F331F820F931F2B813C811D
:10013000820F931F880F991F805A9F4FFC012081C7
:10014000318181E090E0098002C0880F991F0A94F4
:10015000E2F7282B392B8D819E81880F991FAC01E6
:10016000440F551F440F551F840F951F4B815C8111
:10017000840F951F880F991F805A9F4FFC01318370
:10018000208326960FB6F894DEBF0FBECDBFCF9169
:10019000DF910895DF93CF9300D000D000D0CDB78A
:1001A000DEB79A8389837C836B835E834D838981E9
:1001B0009A814B815C812D813E81BA01A9010E9407
:1001C0003E008823C1F18D819E81880F991F9C017B
:1001D000220F331F220F331F820F931F2B813C816D
:1001E000820F931F880F991F805A9F4FFC01208117
:1001F000318181E090E0098002C0880F991F0A9444
:10020000E2F780959095282339238D819E81880F70
:10021000991FAC01440F551F440F551F840F951FA4
:100220004B815C81840F951F880F991F805A9F4FC7
:10023000FC013183208326960FB6F894DEBF0FBEF3
:10024000CDBFCF91DF910895DF93CF9300D000D041
:1002500000D0CDB7DEB79A8389837C836B835E83BE
:100260004D8389819A814B815C812D813E81BA01C8
:10027000A9010E943E00882331F18D819E81880F63
:10028000991F9C01220F331F220F331F820F931FD0
:100290002B813C81820F931F880F991F805A9F4F9B
:1002A000FC012081318181E090E0098002C0880F4B
:1002B000991F0A94E2F782239323009711F081E0BB
:1002C00003C080E001C080E026960FB6F894DEBF40
:1002D0000FBECDBFCF91DF910895DF93CF93CDB700
:1002E000DEB728970FB6F894DEBF0FBECDBF9A8356
:1002F00089837C836B835E834D8338872F838981D9
:100300009A814B815C812D813E81BA01A9010E94B5
:100310003E008823D1F08F8198858130910559F472
:1003200089819A814B815C812D813E81BA01A9012D
:100330000E9472000AC089819A814B815C812D8163
:100340003E81BA01A9010E94CA0028960FB6F8940E
:10035000DEBF0FBECDBFCF91DF910895DF93CF9366
:1003600000D000D000D0CDB7DEB79A8389837C83DC
:100370006B835E834D8389819A814B815C812D8162
:100380003E81BA01A9010E943E008823B1F18D810E
:100390009E81880F991F9C01220F331F220F331F4C
:1003A000820F931F2B813C81820F931F880F991F0F
:1003B000805A9F4FFC012081318181E090E00980CB
:1003C00002C0880F991F0A94E2F7282739278D81E8
:1003D0009E81880F991FAC01440F551F440F551F74
:1003E000840F951F4B815C81840F951F880F991F87
:1003F000805A9F4FFC013183208326960FB6F894D4
:10040000DEBF0FBECDBFCF91DF910895DF93CF93B5
:1004100000D0CDB7DEB789836A838981882F90E0C9
:100420008937910561F08A37910579F08837910510
:1004300091F48A81882F90E00E945A020CC08A8130
:10044000882F90E00E94380306C08A81882F90E0B0
:100450000E94B00300000F900F90CF91DF9108959C
:10046000DF93CF9300D0CDB7DEB789836A838981CC
:10047000882F90E08937910561F08A37910579F0EE
:100480008837910591F48A81882F90E00E94C902F3
:100490000CC08A81882F90E00E94750306C08A8173
:1004A000882F90E00E94ED0300000F900F90CF91F5
:1004B000DF910895DF93CF9300D000D000D0CDB767
:1004C000DEB79E838D838D819E8199230CF458C065
:1004D0008D819E818A3091050CF052C01A8219825A
:1004E00049C01C821B823BC08B819C81880F991F55
:1004F0009C01220F331F220F331F820F931F29816C
:100500003A81820F931F880F991F805A9F4FFC01D9
:100510002081318181E090E00D8002C0880F991F19
:100520000A94E2F7282B392B8B819C81880F991F25
:10053000AC01440F551F440F551F840F951F49816F
:100540005A81840F951F880F991F805A9F4FFC0175
:10055000318320838B819C8101969C838B838B814B
:100560009C818A3091050CF4BFCF89819A810196D4
:100570009A83898389819A818A3091050CF4B1CF5D
:1005800026960FB6F894DEBF0FBECDBFCF91DF9198
:100590000895DF93CF9300D000D000D0CDB7DEB761
:1005A0009E838D838D819E8199230CF458C08D810B
:1005B0009E818A3091050CF052C01A82198249C07E
:1005C0001C821B823BC08B819C81880F991F9C01E0
:1005D000220F331F220F331F820F931F29813A816D
:1005E000820F931F880F991F805A9F4FFC01208113
:1005F00031818EEF9FEF0D8002C0880F991F0A9402
:10060000E2F7282339238B819C81880F991FAC0145
:10061000440F551F440F551F840F951F49815A8160
:10062000840F951F880F991F805A9F4FFC013183BB
:1006300020838B819C8101969C838B838B819C8101
:100640008A3091050CF4BFCF89819A8101969A83F3
:10065000898389819A818A3091050CF4B1CF2696DD
:100660000FB6F894DEBF0FBECDBFCF91DF910895D6
:10067000DF93CF9300D000D0CDB7DEB79C838B83C0
:100680008B819C81992354F18B819C818A309105C7
:100690002CF51A8219821DC089819A81880F991FB1
:1006A0009C01220F331F220F331F820F931F2B81B8
:1006B0003C81820F931F880F991F805A9F4F2FEF05
:1006C0003FEFFC013183208389819A8101969A83CF
:1006D000898389819A818A309105F4F20F900F9075
:1006E0000F900F90CF91DF910895DF93CF9300D0BB
:1006F00000D0CDB7DEB79C838B838B819C819923FF
:1007000044F18B819C818A3091051CF51A821982F3
:100710001BC089819A81880F991F9C01220F331F6A
:10072000220F331F820F931F2B813C81820F931F57
:10073000880F991F805A9F4FFC0111821082898176
:100740009A8101969A83898389819A818A30910559
:1007500004F30F900F900F900F90CF91DF910895B9
:10076000DF93CF9300D000D0CDB7DEB79C838B83CF
:100770008B819C81992354F18B819C818A309105D6
:100780002CF51A8219821DC08B819C81880F991FBC
:100790009C01220F331F220F331F820F931F2981C9
:1007A0003A81820F931F880F991F805A9F4F2FEF16
:1007B0003FEFFC013183208389819A8101969A83DE
:1007C000898389819A818A309105F4F20F900F9084
:1007D0000F900F90CF91DF910895DF93CF9300D0CA
:1007E00000D0CDB7DEB79C838B838B819C8199230E
:1007F00044F18B819C818A3091051CF51A82198203
:100800001BC08B819C81880F991F9C01220F331F75
:10081000220F331F820F931F29813A81820F931F6A
:10082000880F991F805A9F4FFC0111821082898185
:100830009A8101969A83898389819A818A30910568
:1008400004F30F900F900F900F90CF91DF910895C8
:10085000DF93CF9300D000D000D0CDB7DEB79E831A
:100860008D831A8219822AC01C821B821DC02D8191
:100870003E818B819C81880F991FAC01440F551FCD
:10088000440F551F840F951F49815A81840F951F6E
:10089000880F991F805A9F4FFC01318320838B81E1
:1008A0009C8101969C838B838B819C818A309105EE
:1008B000F4F289819A8101969A83898389819A8148
:1008C0008A3091058CF226960FB6F894DEBF0FBEE3
:1008D000CDBFCF91DF910895DF93CF9300D000D0AB
:1008E000CDB7DEB71A82198228C01C821B821BC0BA
:1008F0008B819C81880F991F9C01220F331F220F2F
:10090000331F820F931F29813A81820F931F880F13
:10091000991F805A9F4FFC01118210828B819C810C
:1009200001969C838B838B819C818A30910504F393
:1009300089819A8101969A83898389819A818A30F3
:1009400091059CF20F900F900F900F90CF91DF9137
:100950000895DF93CF9300D000D0CDB7DEB79C834E
:100960008B8316C019820CC01A8204C000008A81D1
:100970008F5F8A838A818630C8F389818F5F8983FC
:1009800089818A3588F38B819C8101979C838B8335
:100990008B819C81009731F70F900F900F900F90F3
:1009A000CF91DF910895DF93CF9300D0CDB7DEB71D
:1009B0001A82198213C0998188E7692F0E94060262
:1009C00088EE93E00E94A904998188E7692F0E942C
:1009D000300289819A8101969A83898389819A81DB
:1009E0008A30910544F388EE93E00E94A9040E94A6
:1009F0006C040F900F90CF91DF910895DF93CF9308
:100A0000CDB7DEB70E94E20578940E94D304FDCFF3
:100A10001F920F920FB60F9211242F933F934F9373
:100A20005F936F938F939F93EF93FF93DF93CF9396
:100A300000D0CDB7DEB788E390E0FC01108285E3FB
:100A400090E025E330E0F9012081237FFC01208341
:100A500085E390E025E330E0F90120812F7EFC0161
:100A6000208389E090E09A83898353C085E390E0F6
:100A700025E330E0F90120812F7DFC0120832BE369
:100A800030E080912801882F90E0880F991FAC01F9
:100A9000440F551F440F551F840F951F49815A81DC
:100AA000840F951F880F991F805A9F4FFC018081EA
:100AB0009181F901808380912801882F90E0880F2F
:100AC000991F9C01220F331F220F331F820F931F88
:100AD00029813A81820F931F880F991F805A9F4F57
:100AE000FC018081918185E390E025E330E0F9010C
:100AF0002081FC01208385E390E025E330E0F901CB
:100B000020812062FC01208389819A8101979A8348
:100B1000898389819A8199230CF0A8CF85E390E09D
:100B200025E330E0F90120812061FC0120838091E0
:100B30002801883088F488E390E020912801422F32
:100B400050E021E030E0042E02C0220F331F0A944F
:100B5000E2F7FC01208319C085E390E025E330E053
:100B6000F9012081622F20912801222F30E0A90174
:100B70004650504021E030E0042E02C0220F331FC7
:100B80000A94E2F7262BFC012083809128018F5FD5
:100B900080932801809128018A3011F41092280155
:100BA0000F900F90CF91DF91FF91EF919F918F91D7
:100BB0006F915F914F913F912F910F900FBE0F90CA
:100BC0001F901895DF93CF93CDB7DEB78AE390E0FF
:100BD000FC01108287E390E0FC01108284E390E046
:100BE000FC0110828BE390E0FC01108288E390E02E
:100BF000FC01108285E390E0FC01108283E490E028
:100C000024E1FC01208385E490E025E430E0F90153
:100C100020812560FC01208385E490E025E430E01C
:100C2000F90120812860FC01208384E490E0FC012C
:100C3000108289E590E029E530E0F9012081206803
:0E0C4000FC012083CF91DF910895F894FFCF3F
:00000001FF
