:100000000C9444000C9461000C9461000C94610009
:100010000C94490A0C9461000C9461000C946100EA
:100020000C9461000C9461000C94CD0A0C94610056
:100030000C9461000C9461000C9461000C946100BC
:100040000C9461000C9461000C9461000C946100AC
:100050000C946100999897969594939291908070E2
:100060006050403020100001020304050607080913
:10007000192939495969798904031221304051629B
:10008000737465564737260011241FBECFE5D8E0AC
:10009000DEBFCDBF10E0A0E6B0E0E0EEFFE102C0C1
:1000A00005900D92A43CB107D9F713E0A4ECB0E0A1
:1000B00001C01D92A03FB107E1F70E94D4090C9442
:1000C000EE0F0C9400008A30910558F477FD09C0BA
:1000D0006A30710534F457FD06C081E04A3051059D
:1000E0001CF080E0089580E00895FF920F931F9325
:1000F000CF93DF93F82EEB018A010E9463008823DF
:1001000079F1C801F801EE0FFF1F73E0880F991F06
:100110007A95E1F7E80FF91FEC0FFD1FEE0FFF1FB7
:10012000EA53FF4F2081318181E090E002C0880FC7
:10013000991FFA94E2F7822B932B9801F801EE0FA6
:10014000FF1F43E0220F331F4A95E1F7E20FF31F31
:10015000EC0FFD1FEE0FFF1FEA53FF4F91838083CB
:10016000DF91CF911F910F91FF900895FF920F9310
:100170001F93CF93DF93F82EEB018A010E94630057
:10018000882389F1C801F801EE0FFF1F23E0880FD3
:10019000991F2A95E1F7E80FF91FEC0FFD1FEE0FED
:1001A000FF1FEA53FF4F2081318181E090E002C0C0
:1001B000880F991FFA94E2F78095909582239323F4
:1001C0009801F801EE0FFF1F13E0220F331F1A955D
:1001D000E1F7E20FF31FEC0FFD1FEE0FFF1FEA53D5
:1001E000FF4F91838083DF91CF911F910F91FF90FB
:1001F0000895FF920F931F93CF93DF93182FEB0176
:10020000F42E052F0E946300882309F18F2D902F73
:10021000FC01EE0FFF1F53E0880F991F5A95E1F77D
:10022000E80FF91FEC0FFD1FEE0FFF1FEA53FF4F02
:100230008081918121E030E002C0220F331F1A95A6
:10024000E2F72823392381E02115310509F480E004
:10025000DF91CF911F910F91FF900895CF92DF9280
:10026000EF92FF920F931F93CF93DF938C017B014B
:100270006A01E9010E946300882371F0C130D10551
:1002800031F4C801B701A6010E94750005C0C8017C
:10029000B701A6010E94B600DF91CF911F910F9187
:1002A000FF90EF90DF90CF900895FF920F931F93F0
:1002B000CF93DF93F82EEB018A010E94630088231D
:1002C00079F1C801F801EE0FFF1F23E0880F991F95
:1002D0002A95E1F7E80FF91FEC0FFD1FEE0FFF1F46
:1002E000EA53FF4F2081318181E090E002C0880F06
:1002F000991FFA94E2F7822793279801F801EE0FED
:10030000FF1FA3E0220F331FAA95E1F7E20FF31FAF
:10031000EC0FFD1FEE0FFF1FEA53FF4F9183808309
:10032000DF91CF911F910F91FF9008958A30910531
:1003300068F541E050E002C0440F551F8A95E2F78E
:1003400020E030E020C0FC01EE0FFF1FBC01A3E065
:10035000660F771FAA95E1F7E60FF71FE20FF31F6D
:10036000EE0FFF1FEA53FF4F60817181642B752BE5
:100370007183608301968A30910529F72F5F3F4F83
:100380002A30310519F080E090E0DDCF08958A3001
:10039000910568F54EEF5FEF02C0440F551F8A9537
:1003A000E2F720E030E020C0FC01EE0FFF1FBC01AF
:1003B000A3E0660F771FAA95E1F7E60FF71FE20F9C
:1003C000F31FEE0FFF1FEA53FF4F6081718164231B
:1003D00075237183608301968A30910529F72F5F19
:1003E0003F4F2A30310519F080E090E0DDCF0895CD
:1003F0008A309105E0F420E030E04FEF5FEFF90143
:10040000EE0FFF1FB901A3E0660F771FAA95E1F772
:10041000E60FF71FE80FF91FEE0FFF1FEA53FF4F1C
:10042000518340832F5F3F4F2A30310541F70895B4
:100430008A309105D0F420E030E0F901EE0FFF1F83
:10044000A90163E0440F551F6A95E1F7E40FF51F1A
:10045000E80FF91FEE0FFF1FEA53FF4F11821082C2
:100460002F5F3F4F2A30310541F708958A309105BB
:10047000E0F420E030E0AC01440F551FB3E0880FFA
:10048000991FBA95E1F7480F591F8FEF9FEFFA01B7
:10049000E20FF31FEE0FFF1FEA53FF4F918380839C
:1004A0002F5F3F4F2A30310591F70895982F862FFF
:1004B000993741F09A3751F0983759F490E00E94FB
:1004C0009601089590E00E94F801089590E00E943E
:1004D000360208958A309105D0F420E030E0AC0176
:1004E000440F551FE3E0880F991FEA95E1F7480F85
:1004F000591FFA01E20FF31FEE0FFF1FEA53FF4FE0
:10050000118210822F5F3F4F2A30310591F70895F5
:10051000982F862F993741F09A3751F0983759F430
:1005200090E00E94C701089590E00E94180208958B
:1005300090E00E946A02089540E050E01EC0F90178
:10054000EE0FFF1FD901AA0FBB1FAA0FBB1FAA0FD7
:10055000BB1FEA0FFB1FE40FF51FEE0FFF1FEA534F
:10056000FF4F918380832F5F3F4F2A30310539F74A
:100570004F5F5F4F4A30510519F020E030E0DFCF88
:10058000089520E030E01CC0FC01EE0FFF1FAC011D
:1005900063E0440F551F6A95E1F7E40FF51FE20F82
:1005A000F31FEE0FFF1FEA53FF4F118210820196D7
:1005B0008A30910549F72F5F3F4F2A30310519F0F6
:1005C00080E090E0E1CF089520E030E008C0EFE95E
:1005D000FFE03197F1F700C000002F5F3F4F281771
:1005E0003907ACF308952F923F924F925F926F922A
:1005F0007F928F929F92BF92CF92DF92EF92FF9263
:100600000F931F93CF93DF93B82E4B01CC24DD249F
:10061000F9E06F2E712C8FEF88168FEF980621F07E
:100620007301EC18FD0801C0760100E010E027011D
:1006300008944108510817010894211C311C3AC044
:100640008FEF88168FEF980611F4910101C0920187
:10065000A9018B2D8A3749F4C801BE010E94F90017
:10066000282FC801BE01A70119C08B2D893751F46D
:10067000C801B901AE010E94F900282FC801B701D5
:10068000AE010CC08B2D883761F4C901BE01A801F1
:100690000E94F900282FC701BE01A80130E00E9486
:1006A0002E012196CA30D10559F60F5F1F4F0A302F
:1006B000110519F0C0E0D0E0C3CF0894C11CD11CD3
:1006C0008AE0C816D10409F0A6CF8FEF88168FEF05
:1006D000980621F4E9E0EE2EF12C02C0EE24FF246E
:1006E00000E010E01FC08B2D8A3721F4C801BE0145
:1006F000A7010DC08B2D893721F4C801B701AE01C8
:1007000006C08B2D883729F4C701BE01A8010E94BD
:10071000B6002196CA30D10531F70F5F1F4F0A305E
:10072000110519F0C0E0D0E0DECFDF91CF911F912D
:100730000F91FF90EF90DF90CF90BF909F908F90A0
:100740007F906F905F904F903F902F900895CF9340
:10075000DF93C0E0D0E088E76C2F0E94560288EE5D
:1007600093E00E94E40288E76C2F0E9488022196A1
:10077000CA30D10581F788EE93E00E94E4020E941E
:10078000C102DF91CF910895EF92FF920F931F93D3
:10079000CF93DF93EE24FF241CC0C701B801AE0144
:1007A0000E94750088EC90E00E94E4022196CA3015
:1007B000D10599F70F5F1F4F0A30110519F0C0E0FE
:1007C000D0E0EBCF0894E11CF11C8AE0E816F104BC
:1007D00019F000E010E0F3CFDF91CF911F910F915E
:1007E000FF90EF900895CF93DF930E94C102C0E085
:1007F000D0E0CE0160E070E040E050E00E94750083
:1008000088EE93E00E94E4022196CA30D10589F770
:100810000E94C102DF91CF910895EF92FF920F9352
:100820001F93CF93DF93F82E8B01C0E0D0E00E949E
:10083000C1028F2D6C2F0E945602C8010E94E40253
:100840002196CA30D10599F78AE0E82E0E94C102AC
:100850008F2D6E2D0E945602C8010E94E402EA9478
:100860003E2D3F3F99F70E94C102DF91CF911F912A
:100870000F91FF90EF9008957F928F929F92AF9289
:10088000BF92CF92DF92EF92FF920F931F93CF937D
:10089000DF93F82EE62E742E49010AE010E02AE0DC
:1008A000C22ED12C99E0A92EB12CE601C01BD10B90
:1008B000872D893041F4E80121978F2D90E06E2D2E
:1008C00070E0A80107C0A501401B510B8F2D90E0DF
:1008D0006E2D70E00E94B6008F2D90E06E2D70E0BE
:1008E000AE010E947500C4010E94E4020150104054
:1008F000E1F6DF91CF911F910F91FF90EF90DF9084
:10090000CF90BF90AF909F908F907F9008956F92FF
:100910007F928F929F92AF92BF92CF92DF92EF928F
:10092000FF920F931F93CF93DF933C014B010E94E3
:10093000C10200E010E044E0E42EF12C17C00E9458
:10094000EA0EB7010E94930E8230910534F0C8017F
:10095000BE0140E050E00E9475002196CA30D105EA
:1009600071F70F5F1F4F0A30110511F1C0E0D0E0A1
:10097000E6CFC801BE0140E050E00E94F9008823A4
:1009800031F4C801BE0149E050E00E947500219693
:10099000CA30D10571F70F5F1F4F0A30110551F4AE
:1009A000C0E0D0E0CC24DD243AE0A32EB12C2DC051
:1009B00000E010E0C0E0D0E0DCCF0E94EA0EB5011C
:1009C0000E94930E8C01015010400E94EA0EB50166
:1009D0000E94930E7C010894E108F108209719F415
:1009E000C9E0D0E002C0C0E0D0E0C801B701AE016C
:1009F0000E94F900882331F0802F6E2D4C2F940136
:100A00000E943C040894C11CD11CC614D704ACF24B
:100A10000E94C102DF91CF911F910F91FF90EF9043
:100A2000DF90CF90BF90AF909F908F907F906F900E
:100A300008954F925F926F927F928F929F92AF92A2
:100A4000BF92CF92DF92EF92FF920F931F93CF93BB
:100A5000DF934C013B0100E010E064E0462E512C96
:100A60005AE0E52EF12C2CC00E94EA0EB2010E9441
:100A7000930E5C01C0E0D0E016C00E94EA0E6C014B
:100A80000E94EA0EFC01C601B7010E94930E9C0170
:100A9000CF01B7010E94930EBC01C90149E050E0AB
:100AA0000E9475002196CA15DB053CF3C3010E9424
:100AB000E4028AE76FEF7FEF0E94F3020F5F1F4FA0
:100AC000081519058CF2DF91CF911F910F91FF90BE
:100AD000EF90DF90CF90BF90AF909F908F907F90DE
:100AE0006F905F904F9008954F925F926F927F92B8
:100AF0008F929F92AF92BF92CF92DF92EF92FF922E
:100B00000F931F93CF93DF934C013B0100E010E064
:100B1000E4E04E2E512C7AE0C72ED12C2CC00E943E
:100B2000EA0EB2010E94930E5C01C0E0D0E016C054
:100B30000E94EA0E7C010E94EA0EFC01C701B60188
:100B40000E94930E9C01CF01B6010E94930EAC014E
:100B5000C90169E070E00E9475002196CA15DB05A5
:100B60003CF3C3010E94E40289E76FEF7FEF0E942C
:100B7000F3020F5F1F4F081519058CF2DF91CF911B
:100B80001F910F91FF90EF90DF90CF90BF90AF90AB
:100B90009F908F907F906F905F904F9008958F926D
:100BA0009F92AF92BF92CF92DF92EF92FF920F93FC
:100BB0001F93CF93DF935C014B01C0E0D0E00AE0CC
:100BC00010E020C00E94EA0E7C010E94EA0E6C0137
:100BD0000E94EA0EFC01C701B8010E94930E9C011D
:100BE000C601B8010E94930E7C01CF01B8010E949A
:100BF000930EAC01C901B7010E947500C4010E94A7
:100C0000E4022196CA15DB05ECF20E94C102DF91D5
:100C1000CF911F910F91FF90EF90DF90CF90BF90F9
:100C2000AF909F908F9008958F929F92AF92BF92B6
:100C3000CF92DF92EF92FF920F931F93CF93DF93A8
:100C40004C01EB0100E010E0FAE0EF2EF12C27C0A0
:100C50000E94EA0E6C010E94EA0E5C010E94EA0EFC
:100C60009C01C601B7010E94930EFC01C501B701AA
:100C70000E94930E6C01C901B7010E94930EAC0152
:100C8000CF01B6010E947500CE010E94E402D7FD9B
:100C900002C0219702C0C6E0D0E00F5F1F4F0815C9
:100CA0001905B4F20E94C102DF91CF911F910F91FB
:100CB000FF90EF90DF90CF90BF90AF909F908F907C
:100CC00008956F927F928F929F92AF92BF92CF9230
:100CD000DF92EF92FF920F931F93DF93CF9300D099
:100CE00000D00F92CDB7DEB7882E992E5E01089402
:100CF000A11CB11CB0E86B2E712C3CC0B5010E9448
:100D000048096501A2E0EA2EF12C23C0C301002EA0
:100D100002C0959587950A94E2F7F601208130E0AC
:100D200082239323009731F0C70169E070E0A801A6
:100D30000E9475000F5F1F4F0830110539F70894A6
:100D4000C11CD11C0894E11CF11CF7E0EF16F10462
:100D500019F000E010E0DACF06E010E084E690E061
:100D60000E94E40289E76FEF7FEF0E94F3020150D7
:100D70001040A1F7F40181914F01882309F0BECF03
:100D80000AE010E084E690E00E94E40289E76FEF59
:100D90007FEF0E94F30201501040A1F70F900F90D7
:100DA0000F900F900F90CF91DF911F910F91FF90B7
:100DB000EF90DF90CF90BF90AF909F908F907F90FB
:100DC0006F900895CF92DF92EF92FF920F931F934F
:100DD000CF93DF936C017B010894E108F108EB01EC
:100DE0002297C80FD91F23C000E010E06881862F2A
:100DF00082958F7070E06F70707090E0A8010E9413
:100E0000F900282F6981862F82958F7070E06F70AE
:100E1000707090E0A80130E00E942E010F5F1F4F1C
:100E20000A30110519F70894E108F10821971E14FA
:100E30001F04D4F2C0E0D0E0F6016081862F8295D5
:100E40008F7070E06F70707090E0AE010E94B6001D
:100E50002196C830D10581F7DF91CF911F910F9175
:100E6000FF90EF90DF90CF9008956F927F928F92D6
:100E70009F92AF92BF92CF92DF92EF92FF920F9329
:100E80001F93DF93CF93CDB7DEB7A4970FB6F89437
:100E9000DEBF0FBECDBF5C014B0180E06E01089448
:100EA000C11CD11CB60144E250E00E943009EE247E
:100EB000FF2404E010E083E0682E712CC601DC2CD6
:100EC000C92E27C00E94EA0E01501040B3010E94B3
:100ED000930E080F191F0A3011051CF417FD04C0EA
:100EE00005C009E010E002C000E010E08D2D9C2D4F
:100EF00064E270E00E94E2068AE090E06AE070E05E
:100F0000A8010E947500C4010E94E4020894E11C3B
:100F1000F11CEA14FB04B4F2A4960FB6F894DEBFF9
:100F20000FBECDBFCF91DF911F910F91FF90EF903A
:100F3000DF90CF90BF90AF909F908F907F906F90F9
:100F400008958F929F92AF92BF92CF92DF92EF92CD
:100F5000FF920F931F93DF93CF93CDB7DEB76097C8
:100F60000FB6F894DEBF0FBECDBF6C015B0181E010
:100F70007E010894E11CF11CB70140E150E00E94A1
:100F8000300900E010E098E0892E912CC701FE2C7A
:100F9000E92E16C0C801B4010E94930EAC0184E092
:100FA00090E060E070E00E947500C5010E94E402DC
:100FB0008F2D9E2D6CE170E00E94E2060F5F1F4FA7
:100FC0000C151D053CF360960FB6F894DEBF0FBEFE
:100FD000CDBFCF91DF911F910F91FF90EF90DF90E8
:100FE000CF90BF90AF909F908F9008952F923F9297
:100FF0004F925F926F927F928F929F92AF92BF9229
:10100000CF92DF92EF92FF920F931F93DF93CF93D4
:10101000CDB7DEB7AB970FB6F894DEBF0FBECDBF2E
:101020005C01C62E072F46E0E42EF12CEC0EFD1ECF
:1010300080E0B70144E250E00E9430096C2C702E31
:101040004E010894811C911CFBA6EAA637E0432EB2
:10105000512C3FC0B4010E9448096401F60121905F
:101060006F0107E010E03324C201801B910B910156
:1010700002C0359527958A95E2F720FF08C089E0E0
:1010800090E069E070E0A8010E94750007C089E067
:1010900090E069E070E0A8010E94B60001501040A5
:1010A0003FEF0F3F130701F7C70164E270E00E94B2
:1010B000E206C5010E94E4028AA59BA5C816D906CE
:1010C00069F6C70164E270E00E94E206C5010E9471
:1010D000E402F30181913F01882309F0BBCF0CE1C9
:1010E00010E026E0E22EF12CEC0EFD1EC70164E2BA
:1010F00070E00E94E206C5010E94E4020150104027
:10110000A9F7AB960FB6F894DEBF0FBECDBFCF9157
:10111000DF911F910F91FF90EF90DF90CF90BF90E4
:10112000AF909F908F907F906F905F904F903F9087
:101130002F9008954F925F926F927F928F929F921D
:10114000AF92BF92CF92DF92EF92FF920F931F93D5
:10115000DF93CF93CDB7DEB7A4970FB6F894DEBF79
:101160000FBECDBF3C01A62E2A0180E06E0108947F
:10117000C11CD11CB60144E250E00E943009882411
:10118000992443C08A2D6B2D4E2D0E9492098823ED
:1011900041F089E090E069E070E0A8010E947500EC
:1011A00007C089E090E069E070E0A8010E94B60005
:1011B0000F5F1F4FBA948B2D8F3F21F7C3010E9401
:1011C000E402C60164E270E00E94E2060894E11CB9
:1011D000F11C88E0E816F10429F40DE110E007C0E5
:1011E000EE24FF2457E0B52E00E010E0CBCFC30182
:1011F0000E94E402C60164E270E00E94E20601502F
:101200001040A9F70894811C911C8414950444F3A0
:101210000AE010E07E010894E11CF11CC3010E9469
:10122000E402C70164E270E00E94E206015010404F
:10123000A9F7A4960FB6F894DEBF0FBECDBFCF912D
:10124000DF911F910F91FF90EF90DF90CF90BF90B3
:10125000AF909F908F907F906F905F904F90089588
:10126000813019F020E030E002C02CE130E0A62F00
:10127000B72F80E090E008C0FC01E20FF31FEC5AAA
:10128000FF4FE491ED93019684179507ACF3089511
:10129000EF92FF920F931F93CF93DF93805295E0CD
:1012A000899F70011124062F172FC0E0D0E0CE01D6
:1012B0008E0D9F1D805090400E941B0FF80181935E
:1012C0008F012196C530D10591F7DF91CF911F9104
:1012D0000F91FF90EF900895EF92FF920F931F935D
:1012E000CF93DF93C82FD0E083E0CC0FDD1F8A952A
:1012F000E1F7C953DE4FE62EF72E00E010E0CE01F5
:101300000E941B0FF70181937F010F5F1F4F2196F2
:1013100008301105A1F7DF91CF911F910F91FF9038
:10132000EF900895DF93CF930F92CDB7DEB790E0A3
:1013300023E0880F991F2A95E1F7860F911D8953A5
:101340009E4F49830E941B0F90E0498102C09595F2
:1013500087954A95E2F781700F90CF91DF910895BC
:101360008FEF8ABB87BB84BB8FE081BB1BBA18BAE7
:1013700015BA8DEF82BB88E783BD85B5856085BDD5
:1013800085B5886085BD14BC89B7806889BF88E051
:101390008CBF83B7876083BF83B7886083BF12BE6B
:1013A00089B7826089BF08950E94B009789482E06D
:1013B00080938E0188EE93E00E94E40280918E017A
:1013C00083FF03C00E94E70DFDCF84E690E060E656
:1013D00070E00E94F60780918E0183FF02C00E9498
:1013E000E70D88EC90E060E570E00E94190584E666
:1013F00090E066E470E00E9474050E94C10284E6F9
:1014000090E066E670E00E94F6070E94C10288E75D
:1014100090E060E570E00E940D0489E790E060E5EF
:1014200070E00E940D048AE790E060E570E00E94A1
:101430000D040E94C10280E293E064E670E00E9425
:1014400014060E94C10284E690E06CE670E00E94FF
:10145000F60780E590E061E045E050E00E949A08E0
:1014600082E390E060E570E00E9487040E94C10280
:1014700084E690E067E870E00E94F6070E94C102EF
:1014800084E690E064E670E00E94CF050E94C1020D
:101490009CCF1F920F920FB60F9211242F933F9360
:1014A0004F935F938F939F93EF93FF9318BA85B3F6
:1014B000837F85BBAC9880E090E0AD9840915D0261
:1014C000242F30E0F901EE0FFF1F43E0220F331FFE
:1014D0004A95E1F7E20FF31FE80FF91FEE0FFF1F28
:1014E000EA53FF4F208131812BBB45B350915D0200
:1014F000252F30E0F901EE0FFF1F53E0220F331FBD
:101500005A95E1F7E20FF31FE80FF91FEE0FFF1FE7
:10151000EA53FF4F20813181207033704C7F432B81
:1015200045BBAD9A01968A30910539F6AC9A809107
:101530005D02883058F420915D0281E090E002C0A5
:10154000880F991F2A95E2F788BB0FC045B32091F9
:101550005D0230E02650304081E090E002C0880F0C
:10156000991F2A95E2F7482B45BB80915D028F5F5A
:1015700080935D0280915D028A3011F410925D02C9
:10158000FF91EF919F918F915F914F913F912F919B
:101590000F900FBE0F901F9018951F920F920FB6CD
:1015A0000F9211242F933F934F938F939F931092F9
:1015B0008E01929A80E48A95F1F7929820E030E0CB
:1015C00080B390E0809590958071907044E09595FF
:1015D00087954A95E1F7022E02C0880F991F0A9459
:1015E000E2F740918E01482B40938E0180E28A956C
:1015F000F1F7939A80E28A95F1F793982F5F3F4F26
:1016000028303105E9F6842F44FF06C090919401FB
:10161000933511F08EE427C085FF06C090919401A8
:101620009E3411F083E51FC047FF06C090919401DE
:10163000973511F085E417C086FF06C0909194019C
:10164000953411F087E50FC081FF06C09091940199
:10165000943411F085E507C080FF07C080919401A4
:10166000853519F084E480938F019F918F914F917C
:101670003F912F910F900FBE0F901F901895CF9311
:10168000DF930E94EA0ECAE0D0E0BE010E94930EF2
:1016900090939101809390010E94EA0EBE010E94F6
:1016A000930E90932703809326030E94EA0EBE01B7
:1016B0000E94930E9093930180939201DF91CF91BA
:1016C00008956091260370912703409192015091F3
:1016D000930180919001909191010E94750008956D
:1016E00040915E0250E08091950190E020912803A6
:1016F00030E0609194016E3471F06F3428F46434FA
:10170000B9F0653469F50CC0653579F0673529F0B5
:10171000633531F508C001960DC0415050400AC0F4
:101720004F5F5F4F07C0019705C02F5F3F4F02C05B
:1017300021503040609190017091910146175707F8
:1017400079F440912603509127038417950751F4AB
:1017500081E040919201509193012417350719F0CF
:1017600080E0089580E00895CF93DF9385E480932F
:101770008F0185E080935E0284E0809395018093E1
:10178000280380935F02809396018093290393E05E
:10179000909360028093970180932A03E1E6F2E040
:1017A000C8E9D1E0ABE2B3E08FEF819389938D93E9
:1017B00093E0E632F907C9F7DF91CF910895EF92F0
:1017C000FF920F931F93CF93DF9380915E02C82FF8
:1017D000D0E00091950110E0E0902803FF24809173
:1017E00094018E3471F08F3428F48434C1F0853440
:1017F00061F50CC0853579F0873531F0833529F5F1
:1018000007C00F5F1F4F0EC021970CC021960AC062
:101810000150104007C00894E11CF11C03C008945B
:10182000E108F108CE01B801A7010E9463008823F6
:1018300061F0CE01B801A7010E94F900882339F0B8
:101840000E94700B91E0882319F490E001C091E0B0
:10185000892FDF91CF911F910F91FF90EF90089505
:101860005F926F927F928F929F92AF92BF92CF9230
:10187000DF92EF92FF920F931F93CF93DF9300912C
:101880005E0210E080919501C82FD0E0E09028031F
:10189000FF24809194018E3471F08F3428F48434C5
:1018A00021F1853449F418C08535D9F0873589F0A0
:1018B000833511F414C021962EE5C22E22E0D22EDB
:1018C00095E9A92E91E0B92E88E2882E83E0982E22
:1018D00038C001501040F0CF0F5F1F4FEDCF219760
:1018E000EBCF0894E11CF11CE7CF0894E108F10864
:1018F000E3CFF6017080F5016080F4015080872D00
:1019000090E0662D70E0452D50E00E946300882332
:1019100031F0F6010083F501C083F401E082089400
:10192000C11CD11C0894A11CB11C0894811C911CE1
:1019300080E0072D182FE62CE7017E01F82EE70145
:10194000E52CC801BE01A7010E946300882329F08D
:1019500036E2C31633E0D30661F6DF91CF911F91D3
:101960000F91FF90EF90DF90CF90BF90AF909F903E
:101970008F907F906F905F900895CF92DF92EF925B
:10198000FF920F931F93CF93DF930EE512E045E98B
:10199000E42E41E0F42E38E2C32E33E0D32EC0E033
:1019A000D0E001C02196F70161917F01F6014191DC
:1019B0006F01F80181918F0190E070E050E00E948A
:1019C0006300882379F7CE010197FE01E25AFD4FAB
:1019D000DC01A25ABD4F2C912083FE01EB56FE4F35
:1019E000DC01AB56BE4F2C912083C85DDC4F885D77
:1019F0009C4FFC0180818883DF91CF911F910F91D3
:101A0000FF90EF90DF90CF900895CF92DF92EF920A
:101A1000FF920F931F93CF93DF93CEE5D2E005E9BA
:101A200011E058E2E52E53E0F52ECC24DD2413C05E
:101A3000F80161918F01F70141917F01899190E057
:101A400070E050E00E9475000894C11CD11CF8ECB5
:101A5000CF16D10461F0F8016081F70140818881DF
:101A600090E070E050E00E946300882309F7DF9166
:101A7000CF911F910F91FF90EF90DF90CF9008953D
:101A800080B38B3F31F480919401833511F08EE463
:101A900023C080B3873F31F4809194018E3411F0DC
:101AA00083E51AC080B38F3E31F48091940187356D
:101AB00011F085E411C080B38F3D31F48091940121
:101AC000853411F087E508C080B38F3B41F48091E5
:101AD0009401843421F085E580938F01089580B3CB
:101AE0008F3739F480919401853519F084E480931F
:101AF0008F0108950E94C10280E590E064E970E0E2
:101B00000E94F6070E94C1028AE990E00E946106E5
:101B10000E94C1020895CF93DF930E94C102CAE0E0
:101B2000D0E00E94050D84E690E00E94E4020E944D
:101B3000C10284E690E00E94E402219791F7DF91D0
:101B4000CF91089506C082E090E060E570E00E94C9
:101B5000190580918F018534B1F308950F931F9378
:101B6000DF93CF9300D000D00F92CDB7DEB78E01B8
:101B70000F5F1F4FB8014AE050E00E94FA0EC80103
:101B80000E9461060F900F900F900F900F90CF91D1
:101B9000DF911F910F910895CF93DF93EC0187EFB1
:101BA00091E00E94230F8C179D0768F487EF91E066
:101BB000BE010E94290F80E590E06DE970E00E946F
:101BC000F60781E001C080E0DF91CF910895AF92E8
:101BD000BF92CF92DF92EF92FF920F931F93DF930A
:101BE000CF93CDB7DEB764970FB6F894DEBF0FBEC4
:101BF000CDBFDE011196EBEAF0E084E101900D9299
:101C00008150E1F785E4809394010E947A0D0E944F
:101C1000B40B0E943F0B0E94050D00E010E0EE2483
:101C2000FF247AE0C72ED12C5E010894A11CB11CC0
:101C30002BC00E94700B8823B1F00E94BD0C0E9443
:101C40003F0B0F5F1F4FC801B6010E947F0E009728
:101C500051F40115110539F089E0E816F1041CF47E
:101C60000894E11CF11C0E94300C0E94C1020E94E9
:101C7000050D0E94610BF701EE0FFF1FEA0DFB1D22
:101C8000808191810E94E40280918F018093940170
:101C90000E94DF0B882369F60E948B0DC8010E9409
:101CA000AE0DC8010E94CC0D0115110551F48091B3
:101CB000C4009091C50001969093C5008093C40024
:101CC00004C01092C5001092C4008091C40090918D
:101CD000C5008330910514F00E94A20D64960FB6E2
:101CE000F894DEBF0FBECDBFCF91DF911F910F9152
:101CF000FF90EF90DF90CF90BF90AF900895AA1B18
:101D0000BB1B51E107C0AA1FBB1FA617B70710F0E6
:101D1000A61BB70B881F991F5A95A9F78095909518
:101D2000BC01CD01089597FB092E07260AD077FD47
:101D300004D0E5DF06D000201AF4709561957F4F3E
:101D40000895F6F7909581959F4F0895A0E0B0E033
:101D5000ECEAFEE00C949D0FEC01688179818A81A8
:101D60009B81611571058105910521F464E279ED8E
:101D70008BE597E02DE133EF41E050E00E947A0FD0
:101D800079018A0127EA31E440E050E00E945B0FCC
:101D90005B016C01C801B7012CEE34EF4FEF5FEF30
:101DA0000E945B0F6A0D7B1D8C1D9D1D97FF04C05B
:101DB0006150704080409048688379838A839B8318
:101DC0007F77CB01CDB7DEB7EAE00C94B90F0E9464
:101DD000A60E08958FEB90E00E94A60E0895A0E055
:101DE000B0E08093BF009093C000A093C100B09377
:101DF000C2000895FB019F01E8944230C4F04532CF
:101E0000B4F44A3029F497FB1EF4909581959F4FC6
:101E1000642F77270E947F0E805D8A330CF0895DE6
:101E20008193CB010097A1F716F45DE251931082E4
:101E3000C9010C942E0FE199FECF9FBB8EBBE09A97
:101E400099278DB30895A8E1B0E042E050E00C94EA
:101E5000400F0E944E0F272F0C944F0FDC01FC0106
:101E6000672F71917723E1F7329704C07C916D93CE
:101E700070836291AE17BF07C8F30895DC01CB01F0
:101E8000FC01E199FECF06C0FFBBEEBBE09A3196A4
:101E90000DB20D9241505040B8F70895262FE199A8
:101EA000FECF9FBB8EBB2DBB0FB6F894E29AE19A92
:101EB0000FBE01960895629FD001739FF001829F2B
:101EC000E00DF11D649FE00DF11D929FF00D839FC9
:101ED000F00D749FF00D659FF00D9927729FB00D66
:101EE000E11DF91F639FB00DE11DF91FBD01CF0179
:101EF0001124089597FB092E05260ED057FD04D016
:101F00004BD00AD0001C38F450954095309521955F
:101F10003F4F4F4F5F4F0895F6F79095809570951E
:101F200061957F4F8F4F9F4F08952F923F924F9211
:101F30005F926F927F928F929F92AF92BF92CF9259
:101F4000DF92EF92FF920F931F93CF93DF93CDB762
:101F5000DEB7CA1BDB0B0FB6F894DEBF0FBECDBFDA
:101F600009942A88398848885F846E847D848C84AB
:101F70009B84AA84B984C884DF80EE80FD800C81B4
:101F80001B81AA81B981CE0FD11D0FB6F894DEBF97
:101F90000FBECDBFED010895A1E21A2EAA1BBB1BF7
:101FA000FD010DC0AA1FBB1FEE1FFF1FA217B30725
:101FB000E407F50720F0A21BB30BE40BF50B661F3B
:101FC000771F881F991F1A9469F7609570958095FF
:101FD00090959B01AC01BD01CF010895F894FFCF0E
:101FE00054473132210041524E4521005343542E73
:101FF0004F4D4547412042524F444552534B414279
:102000002C204E544E55004C4544532041524520FF
:1020100046554E00534E414B45003344004E455704
:10202000204849474853434F524500F401C20190AC
:10203000015E012C01FA00C800B400A00096000166
:04204000000000009C
:00000001FF
